:020000040800F2
:10000000005000202D150008B5140008BD1400088C
:10001000C5140008CD140008D51400080000000025
:10002000000000000000000000000000DD140008D7
:10003000E914000800000000F5140008011500088C
:100040007515000875150008751500087515000868
:100050007515000875150008751500087515000858
:100060007515000875150008751500087515000848
:100070007515000875150008751500087515000838
:100080007515000875150008751500087515000828
:100090007515000875150008751500087515000818
:1000A0007515000875150008751500087515000808
:1000B00075150008751500087515000875150008F8
:1000C00075150008751500087515000875150008E8
:1000D000751500080D150008751500087515000840
:1000E000751500087515000875150008000000005A
:1000F0000000000000000000000000000000000000
:0C01000000000000000000005FF808F1A3
:1001100010B5054C237833B9044B13B10448AFF341
:1001200000800123237010BD0C000020000000009F
:100130009041000808B5034B1BB103490348AFF3D6
:10014000008008BD00000000100000209041000861
:1001500081F0004102E000BF83F0004330B54FEA78
:1001600041044FEA430594EA050F08BF90EA020FE5
:100170001FBF54EA000C55EA020C7FEA645C7FEA78
:10018000655C00F0E2804FEA5454D4EB5555B8BF9B
:100190006D420CDD2C4480EA020281EA030382EA0C
:1001A000000083EA010180EA020281EA0303362D9E
:1001B00088BF30BD11F0004F4FEA01314FF4801C71
:1001C0004CEA113102D0404261EB410113F0004F83
:1001D0004FEA03334CEA133302D0524263EB43033A
:1001E00094EA050F00F0A780A4F10104D5F1200ED8
:1001F0000DDB02FA0EFC22FA05F2801841F1000133
:1002000003FA0EF2801843FA05F359410EE0A5F106
:1002100020050EF1200E012A03FA0EFC28BF4CF037
:10022000020C43FA05F3C01851EBE37101F00045ED
:1002300007D54FF0000EDCF1000C7EEB00006EEBFA
:100240000101B1F5801F1BD3B1F5001F0CD3490884
:100250005FEA30004FEA3C0C04F101044FEA4452DB
:1002600012F5800F80F09A80BCF1004F08BF5FEA62
:10027000500C50F1000041EB045141EA050130BD42
:100280005FEA4C0C404141EB0101013C28BFB1F554
:10029000801FE9D291F0000F04BF01460020B1FA9F
:1002A00081F308BF2033A3F10B03B3F120020CDA72
:1002B0000C3208DD02F1140CC2F10C0201FA0CF050
:1002C00021FA02F10CE002F11402D8BFC2F1200CB5
:1002D00001FA02F120FA0CFCDCBF41EA0C0190406B
:1002E000E41AA2BF01EB0451294330BD6FEA0404B4
:1002F0001F3C1CDA0C340EDC04F11404C4F120029F
:1003000020FA04F001FA02F340EA030021FA04F3B0
:1003100045EA030130BDC4F10C04C4F1200220FA07
:1003200002F001FA04F340EA0300294630BD21FA45
:1003300004F0294630BD94F0000F83F4801306BF0B
:1003400081F480110134013D4EE77FEA645C18BFFF
:100350007FEA655C29D094EA050F08BF90EA020F96
:1003600005D054EA000C04BF1946104630BD91EA8E
:10037000030F1EBF0021002030BD5FEA545C05D191
:100380004000494128BF41F0004130BD14F58004D0
:100390003CBF01F5801130BD01F0004545F0FE4144
:1003A00041F470014FF0000030BD7FEA645C1ABF79
:1003B000194610467FEA655C1CBF0B46024650EAB0
:1003C000013406BF52EA033591EA030F41F40021DC
:1003D00030BD00BF90F0000F04BF0021704730B562
:1003E0004FF4806404F132044FF000054FF0000137
:1003F00050E700BF90F0000F04BF0021704730B5F8
:100400004FF4806404F1320410F0004548BF4042CC
:100410004FF000013EE700BF42004FEAE2014FEA21
:1004200031014FEA02701FBF12F07F4393F07F4FFC
:1004300081F06051704732F07F4208BF704793F0FF
:100440007F4F04BF41F40021704730B54FF4607412
:1004500001F0004521F000411CE700BF50EA010215
:1004600008BF704730B54FF000050AE050EA0102BE
:1004700008BF704730B511F0004502D5404261EB2E
:1004800041014FF4806404F132045FEA915C3FF46F
:10049000D8AE4FF003025FEADC0C18BF03325FEA0C
:1004A000DC0C18BF033202EBDC02C2F1200300FABD
:1004B00003FC20FA02F001FA03FE40EA0E0021FAE2
:1004C00002F11444BDE600BF70B54FF0FF0C4CF4D0
:1004D000E06C1CEA11541DBF1CEA135594EA0C0F82
:1004E00095EA0C0F00F0DEF82C4481EA030621EABD
:1004F0004C5123EA4C5350EA013518BF52EA0335F8
:1005000041F4801143F4801338D0A0FB02CE4FF0A9
:100510000005E1FB02E506F00042E0FB03E54FF0D9
:100520000006E1FB03569CF0000F18BF4EF0010ED1
:10053000A4F1FF04B6F5007F64F5407404D25FEACD
:100540004E0E6D4146EB060642EAC62141EA555180
:100550004FEAC52040EA5E504FEACE2EB4F1FD0CC2
:1005600088BFBCF5E06F1ED8BEF1004F08BF5FEA40
:10057000500E50F1000041EB045170BD06F00046F2
:1005800046EA010140EA020081EA0301B4EB5C049F
:10059000C2BFD4EB0C0541EA045170BD41F4801197
:1005A0004FF0000E013C00F3AB8014F1360FDEBFBC
:1005B000002001F0004170BDC4F10004203C35DA98
:1005C0000C341BDC04F11404C4F1200500FA05F31B
:1005D00020FA04F001FA05F240EA020001F00042BC
:1005E00021F0004110EBD37021FA04F642EB060132
:1005F0005EEA430E08BF20EAD37070BDC4F10C045C
:10060000C4F1200500FA04F320FA05F001FA04F21F
:1006100040EA020001F0004110EBD37041F100010B
:100620005EEA430E08BF20EAD37070BDC4F1200516
:1006300000FA05F24EEA020E20FA04F301FA05F27E
:1006400043EA020321FA04F001F0004121FA04F226
:1006500020EA020000EBD3705EEA430E08BF20EAF6
:10066000D37070BD94F0000F0FD101F00046400030
:1006700041EB010111F4801F08BF013CF7D041EAB2
:10068000060195F0000F18BF704703F000465200B6
:1006900043EB030313F4801F08BF013DF7D043EA87
:1006A0000603704794EA0C0F0CEA135518BF95EA3D
:1006B0000C0F0CD050EA410618BF52EA4306D1D1C4
:1006C00081EA030101F000414FF0000070BD50EAE3
:1006D000410606BF1046194652EA430619D094EA6D
:1006E0000C0F02D150EA013613D195EA0C0F05D157
:1006F00052EA03361CBF104619460AD181EA0301AB
:1007000001F0004141F0FE4141F470014FF0000062
:1007100070BD41F0FE4141F4780170BD70B54FF0FD
:10072000FF0C4CF4E06C1CEA11541DBF1CEA13557D
:1007300094EA0C0F95EA0C0F00F0A7F8A4EB05045F
:1007400081EA030E52EA03354FEA013100F0888056
:100750004FEA03334FF0805545EA131343EA12631F
:100760004FEA022245EA111545EA10654FEA0026D4
:100770000EF000419D4208BF964244F1FD0404F58D
:10078000407402D25B084FEA3202B61A65EB0305E9
:100790005B084FEA32024FF480104FF4002CB6EBA6
:1007A000020E75EB030E22BFB61A754640EA0C0026
:1007B0005B084FEA3202B6EB020E75EB030E22BF66
:1007C000B61A754640EA5C005B084FEA3202B6EBA7
:1007D000020E75EB030E22BFB61A754640EA9C0066
:1007E0005B084FEA3202B6EB020E75EB030E22BF36
:1007F000B61A754640EADC0055EA060E18D04FEAF4
:10080000051545EA16754FEA06164FEAC30343EA93
:1008100052734FEAC2025FEA1C1CC0D111F4801F60
:100820000BD141EA00014FF000004FF0004CB6E759
:1008300011F4801F04BF01430020B4F1FD0C88BFF8
:10084000BCF5E06F3FF6AFAEB5EB030C04BFB6EB03
:10085000020C5FEA500C50F1000041EB045170BDF6
:100860000EF0004E4EEA113114EB5C04C2BFD4EB23
:100870000C0541EA045170BD41F480114FF0000EA7
:10088000013C90E645EA060E8DE60CEA135594EA23
:100890000C0F08BF95EA0C0F3FF43BAF94EA0C0F26
:1008A0000AD150EA01347FF434AF95EA0C0F7FF49B
:1008B00025AF104619462CE795EA0C0F06D152EAEF
:1008C00003353FF4FDAE1046194622E750EA4106D3
:1008D00018BF52EA43067FF4C5AE50EA41047FF4E4
:1008E0000DAF52EA43057FF4EBAE12E74FEA410247
:1008F000B2F1E04324BFB3F5001CDCF1FE5C0DD97E
:1009000001F0004C4FEAC0024CEA5070B2F1004FC7
:1009100040EB830008BF20F00100704711F0804FCA
:1009200021D113F13872BCBF01F00040704741F48F
:1009300080114FEA5252C2F11802C2F1200C10FA93
:100940000CF320FA02F018BF40F001004FEAC12377
:100950004FEAD32303FA0CFC40EA0C0023FA02F31B
:100960004FEA4303CCE77FEA625307D150EA0133F1
:100970001EBF4FF0FE4040F44000704701F00040C1
:1009800040F0FE4040F40000704700BF80F000409F
:1009900002E000BF81F0004142001FBF5FEA410357
:1009A00092EA030F7FEA226C7FEA236C6AD04FEA57
:1009B0001262D2EB1363C1BFD2184140484041409C
:1009C000B8BF5B42192B88BF704710F0004F40F44E
:1009D000000020F07F4018BF404211F0004F41F46A
:1009E000000121F07F4118BF494292EA030F3FD036
:1009F000A2F1010241FA03FC10EB0C00C3F1200349
:100A000001FA03F100F0004302D5494260EB4000D7
:100A1000B0F5000F13D3B0F1807F06D340084FEA42
:100A2000310102F10102FE2A51D2B1F1004F40EB37
:100A3000C25008BF20F0010040EA0300704749009F
:100A400040EB0000013A28BFB0F5000FEDD2B0FA3C
:100A500080FCACF1080CB2EB0C0200FA0CF0AABF5F
:100A600000EBC25052421843BCBFD04018437047FD
:100A700092F0000F81F4000106BF80F40000013203
:100A8000013BB5E74FEA41037FEA226C18BF7FEADA
:100A9000236C21D092EA030F04D092F0000F08BF1C
:100AA0000846704790EA010F1CBF0020704712F003
:100AB0007F4F04D1400028BF40F00040704712F142
:100AC00000723CBF00F50000704700F0004343F0A7
:100AD000FE4040F4000070477FEA226216BF0846DD
:100AE0007FEA23630146420206BF5FEA412390EAA0
:100AF000010F40F4800070474FF0000304E000BF96
:100B000010F0004348BF40425FEA000C08BF704746
:100B100043F0964301464FF000001CE050EA01020A
:100B200008BF70474FF000030AE000BF50EA01021F
:100B300008BF704711F0004302D5404261EB41010C
:100B40005FEA010C02BF84460146002043F0B64331
:100B500008BFA3F18053A3F50003BCFA8CF2083A56
:100B6000A3EBC25310DB01FA02FC634400FA02FC5F
:100B7000C2F12002BCF1004F20FA02F243EB020066
:100B800008BF20F00100704702F1200201FA02FCC8
:100B9000C2F1200250EA4C0021FA02F243EB0200BB
:100BA00008BF20EADC70704742000ED2B2F1FE4F5F
:100BB0000BD34FF09E03B3EB126209D44FEA00232C
:100BC00043F0004323FA02F070474FF000007047F3
:100BD00012F1610F01D1420202D14FF0FF30704794
:100BE0004FF00000704700BF80B582B000AF786062
:100BF0007B681B68054A934204D1012204490548D9
:100C000002F062FD00BF0837BD4680BD00380140DC
:100C1000C40000207C00002080B588B004AF0346EB
:100C2000FB710B46BB7113467B71FB799AB20A23A9
:100C300002930123019307F10F0300930123802105
:100C4000194801F0B9FA7B79002B0DD1BB7901224B
:100C500002FA03F35BB2DB435AB2FB7B5BB2134095
:100C60005BB2DBB2FB730AE0BB79012202FA03F349
:100C70005AB2FB7B5BB213435BB2DBB2FB73FB7913
:100C80009AB20A2302930123019307F10F03009301
:100C900001238021044801F095F9012000F0CEFCE9
:100CA00000BF1037BD4680BD2800002080B588B049
:100CB00004AF0346FB80FB8840F2F552934202D911
:100CC0000323FB730CE0FB88182B02D8FF23FB7374
:100CD00006E0FB881B03124A92FBF3F3DBB2FB73C3
:100CE000012204210020FFF797FF0A23029301232A
:100CF000019307F10F0300930123FE22802109488D
:100D000001F060F9002204210020FFF785FF012295
:100D100007210020FFF780FF00BF1037BD4680BDD0
:100D200040787D012800002080B582B000AF0346E6
:100D3000FB80FB881846FFF7B9FF01220521002040
:100D4000FFF76AFF00BF0837BD4680BD80B588B099
:100D500004AF0346FB710B46BB8013467B80FB79D7
:100D60009B00DBB20633FB73BB88DBB23B72BB88F4
:100D70001B0A9BB2DBB27B727B88DBB2BB727B88C7
:100D80001B0A9BB2DBB2FB72FB7B9AB20A23029373
:100D90000423019307F108030093012380210348F2
:100DA00001F010F900BF1037BD4680BD28000020BB
:100DB00080B584B000AF03463960FB713868FFF737
:100DC0002BFB17A3D3E90023FFF77EFB02460B465C
:100DD000104619464FF00002154BFFF79FFC0246E4
:100DE0000B461046194610A3D3E90023FFF7B6F9C6
:100DF00002460B4610461946FFF778FD0346FB6096
:100E0000F868FFF7D1FE03469AB2FB790021184635
:100E1000FFF79CFF00BF1037BD4680BDAFF30080D9
:100E200000000000009879409A9999999999594041
:100E30000080664080B500AF00F09EFB00F07AF9BC
:100E400000F016FA00F0EAF900F0BAF90122B1490F
:100E5000B14802F039FC3220FFF766FF4FF0000185
:100E60000320FFF7A5FF4FF000010420FFF7A0FFCC
:100E70004FF000010620FFF79BFF4FF00001082014
:100E8000FFF796FF4FF000010A20FFF791FF4FF0A8
:100E900000010D20FFF78CFF9E4B1B78312B14D1E6
:100EA0009E4B1B780133DAB29C4B1A709B4B1B781C
:100EB0001A4613469B0013445B001846FFF720FEBA
:100EC000034619460320FFF773FF924B1B78322B22
:100ED00014D1924B1B78013BDAB2904B1A708F4BB6
:100EE0001B781A4613469B0013445B001846FFF715
:100EF00007FE034619460320FFF75AFF0A2000F0B9
:100F00009DFB844B1B78342B14D1854B1B7801330C
:100F1000DAB2834B1A70824B1B781A4613469B0039
:100F200013445B001846FFF7EBFD03461946042007
:100F3000FFF73EFF774B1B78332B14D1784B1B7890
:100F4000013BDAB2764B1A70754B1B781A46134682
:100F50009B0013445B001846FFF7D2FD0346194679
:100F60000420FFF725FF0A2000F068FB694B1B787F
:100F7000352B14D16B4B1B780133DAB2694B1A70E5
:100F8000684B1B781A4613469B0013445B001846B7
:100F9000FFF7B6FD034619460620FFF709FF5D4B34
:100FA0001B78362B14D15F4B1B78013BDAB25D4BBB
:100FB0001A705C4B1B781A4613469B0013445B0067
:100FC0001846FFF79DFD034619460620FFF7F0FE81
:100FD0000A2000F033FB4F4B1B78382B14D1524BB7
:100FE0001B780133DAB2504B1A704F4B1B781A46FC
:100FF00013469B0013445B001846FFF781FD034630
:1010000019460820FFF7D4FE424B1B78372B14D12A
:10101000454B1B78013BDAB2434B1A70424B1B78AD
:101020001A4613469B0013445B001846FFF768FD01
:10103000034619460820FFF7BBFE0A2000F0FEFA1F
:10104000344B1B78392B14D1384B1B780133DAB26F
:10105000364B1A70354B1B781A4613469B001344C7
:101060005B001846FFF74CFD034619460A20FFF7C0
:101070009FFE284B1B782A2B14D12C4B1B78013B4D
:10108000DAB22A4B1A70294B1B781A4613469B007A
:1010900013445B001846FFF733FD034619460A2048
:1010A000FFF786FE0A2000F0C9FA1A4B1B782B2B9B
:1010B00013D11F4B1B780133DAB21D4B1A701C4B36
:1010C0001B781A4613465B0013441846FFF718FDB9
:1010D000034619460D20FFF76BFE0E4B1B782D2B98
:1010E00013D1134B1B78013BDAB2114B1A70104B22
:1010F0001B781A4613465B0013441846FFF700FDA1
:10110000034619460D20FFF753FE0A2000F096FA19
:10111000C2E600BFC40000207C000020C500002003
:10112000C6000020C7000020C8000020C900002021
:10113000CA00002080B590B000AF07F11803282244
:101140000021184602F0F8FF3B1D00221A605A6089
:101150009A60DA601A610123BB614FF48033FB614E
:1011600000233B620123BB6202237B634FF4803385
:10117000BB634FF4E013FB6307F11803184601F05B
:1011800043FE0346002B01D000F0CAF80F237B601A
:101190000223BB600023FB604FF480633B610023AC
:1011A0007B613B1D0221184602F0B0F80346002B7C
:1011B00001D000F0B5F800BF4037BD4680BD00004B
:1011C00080B500AF124B134A1A60114B124A5A6095
:1011D0000F4B00229A600E4B0022DA600C4B4FF44A
:1011E00080421A610A4B00225A61094B00229A611F
:1011F000074B0022DA61064B00221A62044800F015
:101200009DFD0346002B01D000F08AF800BF80BD91
:101210002800002000540040A086010080B500AFE7
:10122000114B124A1A60104B4FF416525A600E4B73
:1012300000229A600C4B0022DA600B4B00221A61EC
:10124000094B0C225A61084B00229A61064B00227E
:10125000DA61054802F0E8F90346002B01D000F0FE
:101260005FF800BF80BD00BF7C0000200038014057
:1012700080B588B000AF07F1100300221A605A60F1
:101280009A60DA60244B9B69234A43F02003936100
:10129000214B9B6903F02003FB60FB681E4B9B699D
:1012A0001D4A43F0080393611B4B9B6903F008033D
:1012B000BB60BB68184B9B69174A43F004039361FA
:1012C000154B9B6903F004037B607B6800224FF49D
:1012D0004051124800F01AFD4FF440533B61012386
:1012E0007B610023BB610223FB6107F110031946F8
:1012F0000A4800F087FB4FF480433B6100237B6189
:101300000223BB6107F110031946044800F07AFB81
:1013100000BF2037BD4680BD00100240000C0140D8
:1013200080B400AF72B600BF00BFFDE780B485B0E7
:1013300000AF154B9B69144A43F001039361124BB4
:101340009B6903F00103BB60BB680F4BDB690E4A6E
:1013500043F08053D3610C4BDB6903F080537B6017
:101360007B680A4B5B68FB60FB6823F0E063FB6013
:10137000FB6843F08063FB60044AFB68536000BF76
:101380001437BD4680BC7047001002400000014089
:1013900080B588B000AF786007F1100300221A60B2
:1013A0005A609A60DA607B681B68154A934223D1C1
:1013B000144B9B69134A43F008039361114B9B69DB
:1013C00003F00803FB60FB68C0233B6112237B61D1
:1013D0000323FB6107F1100319460B4800F012FBD1
:1013E000084BDB69074A43F40013D361054BDB6903
:1013F00003F40013BB60BB6800BF2037BD4680BD4F
:101400000054004000100240000C014080B588B03C
:1014100000AF786007F1100300221A605A609A60EA
:10142000DA607B681B68204A934239D11F4B9B6965
:101430001E4A43F4804393611C4B9B6903F4804331
:10144000FB60FB68194B9B69184A43F004039361E6
:10145000164B9B6903F00403BB60BB684FF4007339
:101460003B6102237B610323FB6107F110031946F3
:101470000F4800F0C7FA4FF480633B6100237B61A3
:101480000023BB6107F110031946094800F0BAFABE
:1014900000220021252000F0CCF9252000F0E5F9FC
:1014A00000BF2037BD4680BD00380140001002401B
:1014B0000008014080B400AF00BFFDE780B400AF7A
:1014C00000BFFDE780B400AF00BFFDE780B400AF10
:1014D00000BFFDE780B400AF00BFFDE780B400AF00
:1014E00000BFBD4680BC704780B400AF00BFBD46A2
:1014F00080BC704780B400AF00BFBD4680BC704761
:1015000080B500AF00F07EF800BF80BD80B500AFB1
:10151000024802F0FFF800BF80BD00BF7C00002041
:1015200080B400AF00BFBD4680BC7047FFF7F8FF36
:101530000B480C490C4A002302E0D458C450043331
:10154000C4188C42F9D3094A094C002301E0136006
:101550000432A242FBD302F0F7FDFFF76BFC7047A9
:10156000000000200C000020DC4100080C000020DE
:10157000D0000020FEE7000080B500AF084B1B68DC
:10158000074A43F010031360032000F047F90F20CF
:1015900000F008F8FFF7CAFE0023184680BD00BF20
:1015A0000020024080B582B000AF7860124B1A680C
:1015B000124B1B7819464FF47A73B3FBF1F3B2FB6D
:1015C000F3F3184600F05FF90346002B01D0012326
:1015D0000EE07B680F2B0AD8002279684FF0FF30AD
:1015E00000F027F9064A7B681360002300E001231E
:1015F00018460837BD4680BD0000002008000020C6
:101600000400002080B400AF054B1B781A46054B40
:101610001B681344034A136000BFBD4680BC70477B
:1016200008000020CC00002080B400AF024B1B68F3
:101630001846BD4680BC7047CC00002080B584B001
:1016400000AF7860FFF7F0FFB8607B68FB60FB6875
:10165000B3F1FF3F05D00A4B1B781A46FB681344D1
:10166000FB6000BFFFF7E0FF0246BB68D31AFA68D1
:101670009A42F7D800BF00BF1037BD4680BD00BFFB
:101680000800002080B485B000AF78607B6803F06C
:101690000703FB600C4BDB68BB60BA684FF6FF03C7
:1016A0001340BB60FB681A02BB68134343F0BF637F
:1016B00043F40033BB60044ABB68D36000BF1437F7
:1016C000BD4680BC704700BF00ED00E080B400AFB5
:1016D000044BDB681B0A03F007031846BD4680BCB9
:1016E000704700BF00ED00E080B483B000AF034658
:1016F000FB7197F90730002B0BDBFB7903F01F021E
:10170000064997F907305B09012000FA02F241F817
:10171000232000BF0C37BD4680BC704700E100E0CD
:1017200080B483B000AF03463960FB7197F907308E
:10173000002B0ADB3B68DAB20C4997F9073012013B
:10174000D2B20B4483F800230AE03B68DAB20849BE
:10175000FB7903F00F03043B1201D2B20B441A765B
:1017600000BF0C37BD4680BC704700BF00E100E001
:1017700000ED00E080B489B000AFF860B9607A6035
:10178000FB6803F00703FB61FB69C3F10703042B4C
:1017900028BF0423BB61FB690433062B02D9FB6914
:1017A000033B00E000237B614FF0FF32BB6902FA8C
:1017B00003F3DA43BB681A407B699A404FF0FF316C
:1017C0007B6901FA03F3D9437B680B401343184646
:1017D0002437BD4680BC704780B582B000AF7860CA
:1017E0007B68013BB3F1807F01D301230FE00A4AFC
:1017F0007B68013B53600F214FF0FF30FFF790FFF4
:10180000054B00229A60044B07221A6000231846F9
:101810000837BD4680BD00BF10E000E080B582B053
:1018200000AF78607868FFF72DFF00BF0837BD462E
:1018300080BD80B586B000AF0346B9607A60FB73A7
:1018400000237B61FFF742FF78617A68B9687869A5
:10185000FFF790FF024697F90F3011461846FFF741
:101860005FFF00BF1837BD4680BD80B582B000AFB6
:101870000346FB7197F907301846FFF735FF00BFA5
:101880000837BD4680BD80B582B000AF786078680B
:10189000FFF7A2FF034618460837BD4680BD80B457
:1018A00085B000AF78600023FB737B6893F821302C
:1018B000DBB2022B08D07B6804229A637B6800228B
:1018C00083F82020012320E07B681B681A687B686E
:1018D0001B6822F00E021A607B681B681A687B681E
:1018E0001B6822F001021A607B681A6C7B68DB6B54
:1018F000012101FA02F25A607B68012283F821205B
:101900007B68002283F82020FB7B18461437BD46F5
:1019100080BC704780B584B000AF78600023FB7353
:101920007B6893F82130DBB2022B05D07B68042260
:101930009A630123FB7351E07B681B681A687B681C
:101940001B6822F00E021A607B681B681A687B68AD
:101950001B6822F001021A607B681B68224A9342CE
:1019600029D07B681B68214A934222D07B681B6880
:101970001F4A93421AD07B681B681E4A934212D0BA
:101980007B681B681C4A93420AD07B681B681B4A11
:10199000934202D14FF480130EE04FF080730BE0BE
:1019A0004FF4803308E04FF4805305E04FF4807328
:1019B00002E0102300E00123114A53607B680122FA
:1019C00083F821207B68002283F820207B685B6BF2
:1019D000002B03D07B685B6B78689847FB7B1846CD
:1019E0001037BD4680BD00BF080002401C00024009
:1019F0003000024044000240580002406C000240A7
:101A00000000024080B48BB000AF786039600023E2
:101A10007B6200233B6269E101227B6A02FA03F3E5
:101A2000FB613B681B68FA691340BB61BA69FB69DB
:101A30009A4240F058813B685B689A4A93425ED074
:101A4000984A934275D8984A934258D0964A9342FE
:101A50006FD8964A934252D0944A934269D8944A96
:101A600093424CD0924A934263D8924A934246D0D2
:101A7000904A93425DD8122B2AD8122B59D801A232
:101A800052F823F0FF1A0008D91A0008EB1A0008D0
:101A90002D1B0008331B0008331B0008331B0008F4
:101AA000331B0008331B0008331B0008331B0008DE
:101AB000331B0008331B0008331B0008331B0008CE
:101AC000331B0008331B0008E11A0008F51A000850
:101AD000794A934213D02CE03B68DB683B6229E0F3
:101AE0003B68DB6804333B6224E03B68DB68083317
:101AF0003B621FE03B68DB680C333B621AE03B68EB
:101B00009B68002B02D104233B6213E03B689B6877
:101B1000012B05D108233B627B68FA691A6109E051
:101B200008233B627B68FA695A6103E000233B6249
:101B300000E000BFBB69FF2B01D87B6801E07B6838
:101B400004337B61BB69FF2B02D87B6A9B0002E0F8
:101B50007B6A083B9B003B617B691A680F213B69EC
:101B600001FA03F3DB431A40396A3B6901FA03F3D4
:101B70001A437B691A603B685B6803F08053002B53
:101B800000F0B1804D4B9B694C4A43F001039361D7
:101B90004A4B9B6903F00103BB60BB68484A7B6A00
:101BA0009B08023352F82330FB607B6A03F0030387
:101BB0009B000F2202FA03F3DB43FA681340FB6039
:101BC0007B68404A934213D07B683F4A93420DD0D2
:101BD0007B683E4A934207D07B683D4A934201D1DD
:101BE000032306E0042304E0022302E0012300E0D3
:101BF00000237A6A02F0030292009340FA681343CA
:101C0000FB602F497B6A9B080233FA6841F8232066
:101C10003B685B6803F48013002B06D02D4B9A6859
:101C20002C49BB6913438B6006E02A4B9A68BB6959
:101C3000DB43284913408B603B685B6803F4001367
:101C4000002B06D0234BDA682249BB691343CB60D3
:101C500006E0204BDA68BB69DB431E491340CB60CA
:101C60003B685B6803F40033002B06D0194B5A68BD
:101C70001849BB6913434B6006E0164B5A68BB69B1
:101C8000DB43144913404B603B685B6803F48033CB
:101C9000002B21D00F4B1A680E49BB6913430B6010
:101CA00021E000BF000032100000311000002210BF
:101CB000000021100000121000001110001002405E
:101CC0000000014000080140000C014000100140EC
:101CD00000140140000401400B4B1A68BB69DB4350
:101CE000094913400B607B6A01337B623B681A68C9
:101CF0007B6A22FA03F3002B7FF48EAE00BF00BF95
:101D00002C37BD4680BC70470004014080B483B0CE
:101D100000AF78600B467B8013467B707B78002B8E
:101D200003D07A887B681A6103E07B881A047B6899
:101D30001A6100BF0C37BD4680BC704780B584B0C7
:101D400000AF78607B68002B01D101232BE17B6819
:101D500093F83D30DBB2002B06D17B68002283F87C
:101D60003C207868FFF714FB7B68242283F83D2031
:101D70007B681B681A687B681B6822F001021A6086
:101D80007B681B681A687B681B6842F400421A6013
:101D90007B681B681A687B681B6822F400421A6023
:101DA00001F0FCFBF8607B685B68814A934207D8CE
:101DB000FB68804A934294BF01230023DBB206E014
:101DC000FB687D4A934294BF01230023DBB2002BC2
:101DD00001D00123E7E0FB68784AA2FB03239B0CB8
:101DE000BB607B681B685B6823F03F017B681B68F6
:101DF000BA680A435A607B681B681B6A23F03F017C
:101E00007B685B686A4A934202D8BB68013309E089
:101E1000BB684FF4967202FB03F3694AA2FB0323EB
:101E20009B0901337A6812680B4313627B681B6855
:101E3000DB6923F44F4222F0FF027B685B685C4958
:101E40008B4219D8FB68591E7B685B685B00B1FB4D
:101E5000F3F3591C40F6FC730B40002B0AD0FB68CF
:101E6000591E7B685B685B00B1FBF3F30133C3F37E
:101E70000B0351E004234FE07B689B68002B11D1DA
:101E8000FB68581E7B6859680B465B000B44B0FB2F
:101E9000F3F30133C3F30B03002B0CBF0123002327
:101EA000DBB212E0FB68581E7B6859680B469B004A
:101EB0000B4499000B44B0FBF3F30133C3F30B0362
:101EC000002B0CBF01230023DBB2002B01D0012328
:101ED00022E07B689B68002B0ED1FB68581E7B6854
:101EE00059680B465B000B44B0FBF3F30133C3F3BB
:101EF0000B0343F400430FE0FB68581E7B685968EE
:101F00000B469B000B4499000B44B0FBF3F30133E9
:101F1000C3F30B0343F44043796809681343CB616F
:101F20007B681B681B6823F0C0017B68DA697B68EB
:101F30001B6A1A437B681B680A431A607B681B682C
:101F40009B6823F4034323F0FF037A6811697A68DE
:101F5000D26811437A6812680B4393607B681B68F0
:101F6000DB6823F0FF017B685A697B689B691A4331
:101F70007B681B680A43DA607B681B681A687B68A9
:101F80001B6842F001021A607B6800221A647B68B9
:101F9000202283F83D207B6800221A637B680022A0
:101FA00083F83E20002318461037BD4680BD00BF91
:101FB000A08601007F841E00FF083D0083DE1B43D6
:101FC000D34D621080B588B002AFF8600846114664
:101FD0001A4603467B810B463B811346FB80FFF785
:101FE00023FB7861FB6893F83D30DBB2202B40F097
:101FF000D9807B690093192301226D49F86800F0AC
:10200000CDFC0346002B01D00223CCE0FB6893F803
:102010003C30012B01D10223C5E0FB68012283F88B
:102020003C20FB681B681B6803F00103012B07D0F1
:10203000FB681B681A68FB681B6842F001021A60A3
:10204000FB681B681A68FB681B6822F400621A6050
:10205000FB68212283F83D20FB68402283F83E2064
:10206000FB6800221A64FB683A6A5A62FB68BA8C01
:102070005A85FB685B8D9AB2FB681A85FB684D4AEE
:10208000DA62F8883A8979897B690193BB6A00939F
:102090000346F86800F004FB0346002B52D00123EE
:1020A00081E07A69B96AF86800F092FD0346002B76
:1020B0000DD0FB681B6C042B07D1FB681B681A68EA
:1020C000FB681B6842F400721A6001236BE0FB6836
:1020D0005B6A1A78FB681B681A61FB685B6A5A1CAA
:1020E000FB685A62FB681B8D013B9AB2FB681A853C
:1020F000FB685B8D9BB2013B9AB2FB685A85FB681B
:102100001B685B6903F00403042B1BD1FB681B8D68
:10211000002B17D0FB685B6A1A78FB681B681A6192
:10212000FB685B6A5A1CFB685A62FB681B8D013BAB
:102130009AB2FB681A85FB685B8D9BB2013B9AB231
:10214000FB685A85FB681B8D002BAAD17A69B96A96
:10215000F86800F085FD0346002B0DD0FB681B6C72
:10216000042B07D1FB681B681A68FB681B6842F4E4
:1021700000721A60012316E0FB681B681A68FB688E
:102180001B6842F400721A60FB68202283F83D202D
:10219000FB68002283F83E20FB68002283F83C2085
:1021A000002300E0022318461837BD4680BD00BF5B
:1021B000020010000000FFFF80B58CB002AFF86095
:1021C000084611461A4603467B810B463B8113465F
:1021D000FB8000233B62FFF727FA7862FB6893F8E5
:1021E0003D30DBB2202B40F050827B6A00931923F4
:1021F00001228249F86800F0D1FB0346002B01D090
:10220000022343E2FB6893F83C30012B01D1022307
:102210003CE2FB68012283F83C20FB681B681B68DA
:1022200003F00103012B07D0FB681B681A68FB68E9
:102230001B6842F001021A60FB681B681A68FB68A1
:102240001B6822F400621A60FB68222283F83D209A
:10225000FB68402283F83E20FB6800221A64FB687A
:102260003A6B5A62FB68BA8E5A85FB685B8D9AB2EC
:10227000FB681A85FB68624ADA62F8883A897989CC
:102280007B6A0193BB6B00930346F86800F09EFAEB
:102290000346002B01D00123F8E1FB681B8D002BC6
:1022A00013D10023FB61FB681B685B69FB61FB6862
:1022B0001B689B69FB61FB69FB681B681A68FB680C
:1022C0001B6842F400721A60CCE1FB681B8D012B85
:1022D0001ED1FB681B681A68FB681B6822F48062C9
:1022E0001A6072B600BF0023BB61FB681B685B69A4
:1022F000BB61FB681B689B69BB61BB69FB681B68B2
:102300001A68FB681B6842F400721A6062B635E016
:10231000FB681B8D022B1ED1FB681B681A68FB68CB
:102320001B6842F400621A6072B600BF00237B6132
:10233000FB681B685B697B61FB681B689B697B6151
:102340007B69FB681B681A68FB681B6822F4806263
:102350001A6062B612E0FB681B681A68FB681B68AB
:1023600042F480621A6000233B61FB681B685B6972
:102370003B61FB681B689B693B613B6972E1FB68E1
:102380001B8D032B00F21F81FB681B8D012B23D1BA
:102390007A6AB96BF86800F0ABFC0346002B01D0F9
:1023A000012373E1FB681B681A69FB685B6AD2B2A0
:1023B0001A70FB685B6A5A1CFB685A62FB681B8DCB
:1023C000013B9AB2FB681A85FB685B8D9BB2013BAF
:1023D0009AB2FB685A8545E1FB681B8D022B52D1EE
:1023E0007B6A0093BB6B00220649F86800F0D6FABE
:1023F0000346002B08D0012348E100BF0200100073
:102400000000FFFF0400010072B600BFFB681B68FC
:102410001A68FB681B6842F400721A60FB681B684C
:102420001A69FB685B6AD2B21A70FB685B6A5A1C55
:10243000FB685A62FB681B8D013B9AB2FB681A85E8
:10244000FB685B8D9BB2013B9AB2FB685A8562B612
:1024500000BFFB681B681A69FB685B6AD2B21A701E
:10246000FB685B6A5A1CFB685A62FB681B8D013B68
:102470009AB2FB681A85FB685B8D9BB2013B9AB2EE
:10248000FB685A85EEE07B6A0093BB6B00228149B2
:10249000F86800F083FA0346002B01D00123F5E031
:1024A000FB681B681A68FB681B6822F480621A606C
:1024B00072B600BFFB681B681A69FB685B6AD2B220
:1024C0001A70FB685B6A5A1CFB685A62FB681B8DBA
:1024D000013B9AB2FB681A85FB685B8D9BB2013B9E
:1024E0009AB2FB685A856C4B1B68DB086B4AA2FBEF
:1024F00003231A0A13469B001344DA00D31A3B62E3
:102500003B6A013B3B623B6A002B18D1FB6800220F
:102510001A63FB68202283F83D20FB68002283F8C1
:102520003E20FB681B6C43F02002FB681A6462B615
:1025300000BFFB68002283F83C200123A6E0FB6873
:102540001B685B6903F00403042BD9D1FB681B688B
:102550001A68FB681B6842F400721A60FB681B680B
:102560001A69FB685B6AD2B21A70FB685B6A5A1C14
:10257000FB685A62FB681B8D013B9AB2FB681A85A7
:10258000FB685B8D9BB2013B9AB2FB685A8562B6D1
:1025900000BFFB681B681A69FB685B6AD2B21A70DD
:1025A000FB685B6A5A1CFB685A62FB681B8D013B27
:1025B0009AB2FB681A85FB685B8D9BB2013B9AB2AD
:1025C000FB685A854EE07A6AB96BF86800F090FBB8
:1025D0000346002B01D0012358E0FB681B681A69F1
:1025E000FB685B6AD2B21A70FB685B6A5A1CFB68B4
:1025F0005A62FB681B8D013B9AB2FB681A85FB6827
:102600005B8D9BB2013B9AB2FB685A85FB681B68E5
:102610005B6903F00403042B24D1FB681B8D032B9F
:1026200007D1FB681B681A68FB681B6822F480628C
:102630001A60FB681B681A69FB685B6AD2B21A7081
:10264000FB685B6A5A1CFB685A62FB681B8D013B86
:102650009AB2FB681A85FB685B8D9BB2013B9AB20C
:10266000FB685A85FB681B8D002B7FF488AEFB68E6
:10267000202283F83D20FB68002283F83E20FB687F
:10268000002283F83C20002300E00223184628376C
:10269000BD4680BD040001000000002089B5F8148B
:1026A00080B588B002AFF860084611461A46034666
:1026B0007B810B463B811346FB80FB681B681A68D5
:1026C000FB681B6842F480721A607B6A00933B6A65
:1026D00000224FF00111F86800F060F90346002B6A
:1026E0000DD0FB681B681B6803F48073B3F5807F13
:1026F00003D1FB684FF400721A6403235FE07B8907
:10270000DBB21A46FB681B6802F0FE021A617B6AA4
:102710003A6A2D49F86800F0BBF90346002B01D056
:1027200001234CE000237B61FB681B685B697B61D4
:10273000FB681B689B697B617B697A6A396AF86808
:1027400000F046FA0346002B0DD0FB681B6C042BEF
:1027500007D1FB681B681A68FB681B6842F40072AB
:102760001A6001232BE0FB88012B05D13B89DAB2EB
:10277000FB681B681A6121E03B891B0A9BB2DAB235
:10278000FB681B681A617A6A396AF86800F020FAF7
:102790000346002B0DD0FB681B6C042B07D1FB6894
:1027A0001B681A68FB681B6842F400721A600123F8
:1027B00005E03B89DAB2FB681B681A610023184602
:1027C0001837BD4680BD00BF0200010080B588B04B
:1027D00002AFF860084611461A4603467B810B4655
:1027E0003B811346FB80FB681B681A68FB681B680B
:1027F00042F480621A60FB681B681A68FB681B68F9
:1028000042F480721A607B6A00933B6A00224FF0A8
:102810000111F86800F0C2F80346002B0DD0FB68E8
:102820001B681B6803F48073B3F5807F03D1FB68DA
:102830004FF400721A640323AAE07B89DBB21A46C4
:10284000FB681B6802F0FE021A617B6A3A6A524911
:10285000F86800F01DF90346002B01D0012397E032
:1028600000237B61FB681B685B697B61FB681B68FD
:102870009B697B617B697A6A396AF86800F0A8F91C
:102880000346002B0DD0FB681B6C042B07D1FB68A3
:102890001B681A68FB681B6842F400721A60012307
:1028A00076E0FB88012B05D13B89DAB2FB681B6817
:1028B0001A6121E03B891B0A9BB2DAB2FB681B68F4
:1028C0001A617A6A396AF86800F082F90346002BC7
:1028D0000DD0FB681B6C042B07D1FB681B681A68C2
:1028E000FB681B6842F400721A60012350E03B89C8
:1028F000DAB2FB681B681A617A6A396AF86800F014
:1029000067F90346002B0DD0FB681B6C042B07D125
:10291000FB681B681A68FB681B6842F400721A6047
:10292000012335E0FB681B681A68FB681B6842F4EA
:1029300080721A607B6A00933B6A00224FF001119B
:10294000F86800F02BF80346002B0DD0FB681B68DD
:102950001B6803F48073B3F5807F03D1FB684FF4E9
:1029600000721A64032313E07B89DBB243F0010396
:10297000DAB2FB681B681A617B6A3A6A0649F86832
:1029800000F086F80346002B01D0012300E000236D
:1029900018461837BD4680BD0200010080B584B0DE
:1029A00000AFF860B9603B601346FB7148E03B68DC
:1029B000B3F1FF3F44D0FEF737FE0246BB69D31A9E
:1029C0003A689A4202D33B68002B39D1BB681B0C92
:1029D000DBB2012B0DD1FB681B685B69DA43BB6876
:1029E00013409BB2002B0CBF01230023DBB21A461D
:1029F0000CE0FB681B689B69DA43BB6813409BB221
:102A0000002B0CBF01230023DBB21A46FB799A424C
:102A100016D1FB6800221A63FB68202283F83D2050
:102A2000FB68002283F83E20FB681B6C43F0200209
:102A3000FB681A64FB68002283F83C20012323E032
:102A4000BB681B0CDBB2012B0DD1FB681B685B69FB
:102A5000DA43BB6813409BB2002B0CBF0123002359
:102A6000DBB21A460CE0FB681B689B69DA43BB6863
:102A700013409BB2002B0CBF01230023DBB21A468C
:102A8000FB799A4293D0002318461037BD4680BD8B
:102A900080B584B000AFF860B9607A603B6071E0E7
:102AA000FB681B685B6903F48063B3F5806F23D117
:102AB000FB681B681A68FB681B6842F400721A60A6
:102AC000FB681B686FF480625A61FB6800221A631E
:102AD000FB68202283F83D20FB68002283F83E201B
:102AE000FB681B6C43F00402FB681A64FB6800225D
:102AF00083F83C20012367E07B68B3F1FF3F41D0BE
:102B0000FEF792FD02463B68D31A7A689A4202D3D6
:102B10007B68002B36D1BB681B0CDBB2012B0CD1C0
:102B2000FB681B685B69DA43BB6813409BB2002BF0
:102B300014BF01230023DBB20BE0FB681B689B6919
:102B4000DA43BB6813409BB2002B14BF0123002360
:102B5000DBB2002B16D0FB6800221A63FB68202230
:102B600083F83D20FB68002283F83E20FB681B6C45
:102B700043F02002FB681A64FB68002283F83C20C3
:102B8000012321E0BB681B0CDBB2012B0CD1FB68DD
:102B90001B685B69DA43BB6813409BB2002B14BF10
:102BA00001230023DBB20BE0FB681B689B69DA435F
:102BB000BB6813409BB2002B14BF01230023DBB280
:102BC000002B7FF46DAF002318461037BD4680BD43
:102BD00080B584B000AFF860B9607A6034E0F8681E
:102BE00000F0E3F80346002B01D0012334E0BB687A
:102BF000B3F1FF3F28D0FEF717FD02467B68D31ADA
:102C0000BA689A4202D3BB68002B1DD1FB681B68CF
:102C10005B6903F08003802B16D0FB6800221A63E7
:102C2000FB68202283F83D20FB68002283F83E20C9
:102C3000FB681B6C43F02002FB681A64FB680022EF
:102C400083F83C20012307E0FB681B685B6903F005
:102C50008003802BC3D1002318461037BD4680BDAA
:102C600080B584B000AFF860B9607A6034E0F8688D
:102C700000F09BF80346002B01D0012334E0BB6831
:102C8000B3F1FF3F28D0FEF7CFFC02467B68D31A92
:102C9000BA689A4202D3BB68002B1DD1FB681B683F
:102CA0005B6903F00403042B16D0FB6800221A634F
:102CB000FB68202283F83D20FB68002283F83E2039
:102CC000FB681B6C43F02002FB681A64FB6800225F
:102CD00083F83C20012307E0FB681B685B6903F075
:102CE0000403042BC3D1002318461037BD4680BD12
:102CF00080B584B000AFF860B9607A6049E0FB68E5
:102D00001B685B6903F01003102B19D1FB681B686B
:102D10006FF010025A61FB6800221A63FB682022E0
:102D200083F83D20FB68002283F83E20FB681A6C84
:102D3000FB681A64FB68002283F83C20012330E022
:102D4000FEF772FC02467B68D31ABA689A4202D335
:102D5000BB68002B1DD1FB681B685B6903F0400357
:102D6000402B16D0FB6800221A63FB68202283F8F0
:102D70003D20FB68002283F83E20FB681B6C43F07B
:102D80002002FB681A64FB68002283F83C200123C0
:102D900007E0FB681B685B6903F04003402BAED182
:102DA000002318461037BD4680BD80B483B000AF05
:102DB00078607B681B685B6903F48063B3F5806FA0
:102DC0001BD17B681B686FF480625A617B680022AC
:102DD0001A637B68202283F83D207B68002283F8F9
:102DE0003E207B681B6C43F004027B681A647B689E
:102DF000002283F83C20012300E0002318460C3712
:102E0000BD4680BC7047000080B586B000AF7860DA
:102E10007B68002B01D1012372E27B681B6803F001
:102E20000103002B00F08780924B5B6803F00C03DA
:102E3000042B0CD08F4B5B6803F00C03082B12D1D2
:102E40008C4B5B6803F48033B3F5803F0BD1894B27
:102E50001B6803F40033002B6CD07B685B68002B8D
:102E600068D101234CE27B685B68B3F5803F06D1F3
:102E7000804B1B687F4A43F4803313602EE07B68ED
:102E80005B68002B0CD17B4B1B687A4A23F48033A0
:102E90001360784B1B68774A23F4802313601DE08E
:102EA0007B685B68B3F5A02F0CD1724B1B68714A2D
:102EB00043F4802313606F4B1B686E4A43F48033E6
:102EC00013600BE06B4B1B686A4A23F4803313607A
:102ED000684B1B68674A23F4802313607B685B6838
:102EE000002B13D0FEF7A0FB386108E0FEF79CFB37
:102EF00002463B69D31A642B01D9032300E25D4BE0
:102F00001B6803F40033002BF0D014E0FEF78CFBB9
:102F1000386108E0FEF788FB02463B69D31A642B50
:102F200001D90323ECE1534B1B6803F40033002B5E
:102F3000F0D100E000BF7B681B6803F00203002BA8
:102F400063D04C4B5B6803F00C03002B0BD0494B58
:102F50005B6803F00C03082B1CD1464B5B6803F441
:102F60008033002B16D1434B1B6803F00203002B68
:102F700005D07B681B69012B01D00123C0E13D4BCB
:102F80001B6823F0F8027B685B69DB003949134357
:102F90000B603AE07B681B69002B20D0364B012286
:102FA0001A60FEF741FB386108E0FEF73DFB024680
:102FB0003B69D31A022B01D90323A1E12D4B1B68D6
:102FC00003F00203002BF0D02A4B1B6823F0F80219
:102FD0007B685B69DB00274913430B6015E0264BD8
:102FE00000221A60FEF720FB386108E0FEF71CFBA8
:102FF00002463B69D31A022B01D9032380E11D4B02
:103000001B6803F00203002BF0D17B681B6803F000
:103010000803002B3AD07B689B69002B19D0174B13
:1030200001221A60FEF700FB386108E0FEF7FCFAA7
:1030300002463B69D31A022B01D9032360E10D4BF1
:103040005B6A03F00203002BF0D0012000F0CEFAFF
:103050001CE00A4B00221A60FEF7E6FA38610FE026
:10306000FEF7E2FA02463B69D31A022B08D9032382
:1030700046E100BF0010024000004242800442428C
:10308000924B5B6A03F00203002BE9D17B681B685B
:1030900003F00403002B00F0A6800023FB758B4B8C
:1030A000DB6903F08053002B0DD1884BDB69874A25
:1030B00043F08053D361854BDB6903F08053BB60E1
:1030C000BB680123FB75824B1B6803F48073002BE4
:1030D00018D17F4B1B687E4A43F480731360FEF760
:1030E000A3FA386108E0FEF79FFA02463B69D31A5B
:1030F000642B01D9032303E1754B1B6803F4807330
:10310000002BF0D07B68DB68012B06D16F4B1B6A6C
:103110006E4A43F0010313622DE07B68DB68002BED
:103120000CD16A4B1B6A694A23F001031362674B97
:103130001B6A664A23F0040313621CE07B68DB68A9
:10314000052B0CD1614B1B6A604A43F004031362E8
:103150005E4B1B6A5D4A43F0010313620BE05B4B5D
:103160001B6A5A4A23F001031362584B1B6A574AE1
:1031700023F0040313627B68DB68002B15D0FEF795
:1031800053FA38610AE0FEF74FFA02463B69D31A58
:1031900041F28832934201D90323B1E04B4B1B6AC1
:1031A00003F00203002BEED014E0FEF73DFA386185
:1031B0000AE0FEF739FA02463B69D31A41F2883237
:1031C000934201D903239BE0404B1B6A03F00203A7
:1031D000002BEED1FB7D012B05D13C4BDB693B4A3B
:1031E00023F08053D3617B68DB69002B00F087807C
:1031F000364B5B6803F00C03082B61D07B68DB69FE
:10320000022B46D1334B00221A60FEF70DFA3861CB
:1032100008E0FEF709FA02463B69D31A022B01D9EE
:1032200003236DE0294B1B6803F00073002BF0D1E2
:103230007B681B6AB3F5803F08D1244B5B6823F49D
:1032400000327B689B68214913434B601F4B5B68CE
:1032500023F474127B68196A7B685B6A0B431B4911
:1032600013434B601B4B01221A60FEF7DDF93861F6
:1032700008E0FEF7D9F902463B69D31A022B01D9BF
:1032800003233DE0114B1B6803F00073002BF0D0CB
:1032900035E0104B00221A60FEF7C6F9386108E0ED
:1032A000FEF7C2F902463B69D31A022B01D9032368
:1032B00026E0064B1B6803F00073002BF0D11EE0E4
:1032C0007B68DB69012B07D1012319E00010024064
:1032D00000700040600042420B4B5B68FB60FB6883
:1032E00003F480327B681B6A9A4206D1FB6803F4C0
:1032F00070127B685B6A9A4201D0012300E00023D0
:1033000018461837BD4680BD0010024080B584B015
:1033100000AF786039607B68002B01D10123D0E0D9
:103320006A4B1B6803F007033A689A4210D9674B4F
:103330001B6823F0070265493B6813430B60634B2E
:103340001B6803F007033A689A4201D00123B8E0F2
:103350007B681B6803F00203002B20D07B681B688E
:1033600003F00403002B05D0594B5B68584A43F423
:10337000E06353607B681B6803F00803002B05D0F3
:10338000534B5B68524A43F460535360504B5B6845
:1033900023F0F0027B689B684D4913434B607B68C8
:1033A0001B6803F00103002B40D07B685B68012B96
:1033B00007D1474B1B6803F40033002B15D10123C1
:1033C0007FE07B685B68022B07D1414B1B6803F0F1
:1033D0000073002B09D1012373E03D4B1B6803F000
:1033E0000203002B01D101236BE0394B5B6823F012
:1033F00003027B685B68364913434B60FEF714F9A0
:10340000F8600AE0FEF710F90246FB68D31A41F2B1
:103410008832934201D9032353E02D4B5B6803F0BC
:103420000C027B685B689B009A42EBD1274B1B68C0
:1034300003F007033A689A4210D2244B1B6823F02A
:10344000070222493B6813430B60204B1B6803F0C3
:1034500007033A689A4201D0012332E07B681B6877
:1034600003F00403002B08D0194B5B6823F4E062DF
:103470007B68DB68164913434B607B681B6803F06D
:103480000803002B09D0124B5B6823F460527B6861
:103490001B69DB000E4913434B6000F021F8024624
:1034A0000B4B5B681B0903F00F030A49CB5C22FA44
:1034B00003F3094A1360094B1B681846FEF772F8BC
:1034C000002318461037BD4680BD00BF00200240D3
:1034D00000100240A8410008000000200400002065
:1034E00080B487B000AF0023FB600023BB600023E3
:1034F0007B6100237B6000233B611E4B5B68FB60AC
:10350000FB6803F00C03042B02D0082B03D027E048
:10351000194B3B6127E0FB689B0C03F00F03174A34
:10352000D35C7B60FB6803F48033002B10D0114B1D
:103530005B685B0C03F00103114AD35CBB607B68E2
:103540000D4A03FB02F2BB68B2FBF3F37B6104E0BC
:103550007B680C4A02FB03F37B617B693B6102E001
:10356000054B3B6100BF3B6918461C37BD4680BC1C
:10357000704700BF0010024000127A00C0410008EE
:10358000D041000800093D0080B400AF024B1B6829
:103590001846BD4680BC70470000002080B500AFD3
:1035A000FFF7F2FF0246054B5B681B0A03F00703B7
:1035B0000349CB5C22FA03F3184680BD0010024099
:1035C000B841000880B500AFFFF7DEFF0246054BAB
:1035D0005B68DB0A03F007030349CB5C22FA03F3C1
:1035E000184680BD00100240B841000880B485B084
:1035F00000AF78600A4B1B680A4AA2FB03235B0AF0
:103600007A6802FB03F3FB6000BFFB685A1EFA6096
:10361000002BF9D100BF00BF1437BD4680BC7047F6
:1036200000000020D34D621080B582B000AF7860FA
:103630007B68002B01D1012342E07B6893F8413085
:10364000DBB2002B06D17B68002283F8402078682B
:10365000FDF7DCFE7B68242283F841207B681B6831
:10366000DA687B681B6822F40052DA60786800F040
:10367000D5FC7B681B681A697B681B6822F4904242
:103680001A617B681B685A697B681B6822F02A02F2
:103690005A617B681B68DA687B681B6842F40052D9
:1036A000DA607B6800225A647B68202283F841201C
:1036B0007B68202283F842207B6800225A63002323
:1036C00018460837BD4680BD80B584B000AFF860AD
:1036D000B9601346FB80FB6893F84230DBB2202BC5
:1036E00012D1BB68002B02D0FB88002B01D1012333
:1036F0000BE0FB6800221A63FB881A46B968F86879
:1037000000F0B7FA034600E0022318461037BD4622
:1037100080BD000080B5BAB000AF78607B681B68E0
:103720001B68C7F8E4307B681B68DB68C7F8E030CB
:103730007B681B685B69C7F8DC300023C7F8D830AA
:103740000023C7F8D430D7F8E43003F00F03C7F8EC
:10375000D830D7F8D830002B0FD1D7F8E43003F0A9
:103760002003002B09D0D7F8E03003F02003002B12
:1037700003D0786800F093FB5BE2D7F8D830002BD9
:1037800000F0DE80D7F8DC3003F00103002B06D117
:10379000D7F8E03003F49073002B00F0D180D7F815
:1037A000E43003F00103002B0BD0D7F8E03003F432
:1037B0008073002B05D07B685B6C43F001027B6853
:1037C0005A64D7F8E43003F00403002B0BD0D7F889
:1037D000DC3003F00103002B05D07B685B6C43F009
:1037E00002027B685A64D7F8E43003F00203002B2E
:1037F0000BD0D7F8DC3003F00103002B05D07B6839
:103800005B6C43F004027B685A64D7F8E43003F041
:103810000803002B11D0D7F8E03003F02003002B71
:1038200005D1D7F8DC3003F00103002B05D07B680D
:103830005B6C43F008027B685A647B685B6C002B0E
:1038400000F0F281D7F8E43003F02003002B08D019
:10385000D7F8E03003F02003002B02D0786800F0A6
:103860001EFB7B681B685B6903F04003002B14BFE1
:1038700001230023DBB2C7F8D4307B685B6C03F014
:103880000803002B03D1D7F8D430002B4FD0786831
:1038900000F028FA7B681B685B6903F04003002B8B
:1038A00041D07B681B681433C7F89C30D7F89C3034
:1038B00053E8003FC7F89830D7F8983023F040031A
:1038C000C7F8D0307B681B681433D7F8D020C7F80E
:1038D000A820C7F8A430D7F8A410D7F8A82041E84A
:1038E0000023C7F8A030D7F8A030002BD9D17B68CF
:1038F000DB6B002B13D07B68DB6B7E4A5A637B68E3
:10390000DB6B1846FEF706F80346002B16D07B68E3
:10391000DB6B5B6B7A68D26B104698470EE0786879
:1039200000F093F90AE0786800F08FF906E0786813
:1039300000F08BF97B6800225A6475E100BF73E1E7
:103940007B681B6B012B40F04F81D7F8E43003F00C
:103950001003002B00F04881D7F8E03003F010038B
:10396000002B00F041810023BB607B681B681B6853
:10397000BB607B681B685B68BB60BB687B681B685F
:103980005B6903F04003002B00F0B6807B68DB6BC3
:103990001B685B68A7F8BE30B7F8BE30002B00F09C
:1039A00045817B689B8DB7F8BE209A4280F03E81AE
:1039B0007B68B7F8BE20DA857B68DB6B9B69202BC0
:1039C00000F088807B681B680C33C7F88830D7F814
:1039D000883053E8003FC7F88430D7F8843023F4A8
:1039E0008073C7F8B8307B681B680C33D7F8B820F1
:1039F000C7F89420C7F89030D7F89010D7F89420E3
:103A000041E80023C7F88C30D7F88C30002BD9D18F
:103A10007B681B6814337B677B6F53E8003F3B6711
:103A20003B6F23F00103C7F8B4307B681B68143385
:103A3000D7F8B420C7F88020FB67F96FD7F880204B
:103A400041E80023BB67BB6F002BE1D17B681B689B
:103A500014333B663B6E53E8003FFB65FB6D23F080
:103A60004003C7F8B0307B681B681433D7F8B02028
:103A7000FA66BB66B96EFA6E41E800237B667B6E20
:103A8000002BE3D17B68202283F842207B68002250
:103A90001A637B681B680C33FB64FB6C53E8003FC4
:103AA000BB64BB6C23F01003C7F8AC307B681B68A9
:103AB0000C33D7F8AC20BA657B65796DBA6D41E8F7
:103AC00000233B653B6D002BE3D17B68DB6B184625
:103AD000FDF7E5FE7B6802225A637B689A8D7B685E
:103AE000DB8D9BB2D31A9BB21946786800F0B6F80A
:103AF0009CE000BFA93D00087B689A8D7B68DB8D48
:103B00009BB2D31AA7F8CE307B68DB8D9BB2002B1B
:103B100000F08E80B7F8CE30002B00F089807B68F3
:103B20001B680C33BB63BB6B53E8003F7B637B6B51
:103B300023F49073C7F8C8307B681B680C33D7F840
:103B4000C8207A643B64396C7A6C41E80023FB63DB
:103B5000FB6B002BE3D17B681B6814337B627B6AB1
:103B600053E8003F3B623B6A23F00103C7F8C430CF
:103B70007B681B681433D7F8C4203A63FB62F96A88
:103B80003A6B41E80023BB62BB6A002BE3D17B6840
:103B9000202283F842207B6800221A637B681B681E
:103BA0000C333B613B6953E8003FFB60FB6823F04B
:103BB0001003C7F8C0307B681B680C33D7F8C020EF
:103BC000FA61BB61B969FA6941E800237B617B69ED
:103BD000002BE3D17B6802225A63B7F8CE30194636
:103BE000786800F03BF823E0D7F8E43003F0800376
:103BF000002B09D0D7F8E03003F08003002B03D06E
:103C0000786800F0E5F814E0D7F8E43003F04003FA
:103C1000002B0ED0D7F8E03003F04003002B08D083
:103C2000786800F024F904E000BF02E000BF00E083
:103C300000BFE837BD4680BD80B483B000AF786078
:103C400000BF0C37BD4680BC704780B483B000AF66
:103C5000786000BF0C37BD4680BC704780B483B02D
:103C600000AF78600B467B8000BF0C37BD4680BC40
:103C7000704780B485B000AFF860B9601346FB8030
:103C8000FB68BA689A62FB68FA889A85FB68FA88CA
:103C9000DA85FB6800225A64FB68222283F84220FE
:103CA000FB681B69002B07D0FB681B68DA68FB68A0
:103CB0001B6842F48072DA60FB681B685A69FB6813
:103CC0001B6842F001025A61FB681B68DA68FB68F6
:103CD0001B6842F02002DA60002318461437BD4604
:103CE00080BC704780B495B000AF78607B681B687B
:103CF0000C337B637B6B53E8003F3B633B6B23F4EC
:103D00009073FB647B681B680C33FA6C3A64FB634A
:103D1000F96B3A6C41E80023BB63BB6B002BE5D128
:103D20007B681B6814333B623B6A53E8003FFB61CE
:103D3000FB6923F00103BB647B681B681433BA6C16
:103D4000FA62BB62B96AFA6A41E800237B627B6A65
:103D5000002BE5D17B681B6B012B19D17B681B689D
:103D60000C33FB60FB6853E8003FBB60BB6823F08B
:103D700010037B647B681B680C337A6CBA617B61CF
:103D80007969BA6941E800233B613B69002BE5D1C1
:103D90007B68202283F842207B6800221A6300BFE0
:103DA0005437BD4680BC704780B584B000AF7860A2
:103DB0007B685B6AFB60FB680022DA85FB68002297
:103DC000DA84F868FFF741FF00BF1037BD4680BDB9
:103DD00080B485B000AF78607B6893F84130DBB287
:103DE000212B3ED17B689B68B3F5805F14D17B6843
:103DF0001B69002B10D17B681B6AFB60FB681B886A
:103E00001A467B681B68C2F308025A607B681B6A0B
:103E10009A1C7B681A6208E07B681B6A591C7A68E6
:103E200011621A787B681B685A607B68DB8C9BB2D6
:103E3000013B9BB27A681946D184002B0FD17B6875
:103E40001B68DA687B681B6822F08002DA607B6896
:103E50001B68DA687B681B6842F04002DA60002366
:103E600000E0022318461437BD4680BC704780B579
:103E700082B000AF78607B681B68DA687B681B687B
:103E800022F04002DA607B68202283F841207868C3
:103E9000FFF7D2FE002318460837BD4680BD80B527
:103EA0008CB000AF78607B6893F84230DBB2222B95
:103EB00040F0AE807B689B68B3F5805F17D17B686C
:103EC0001B69002B13D10023FB627B689B6ABB62DA
:103ED0007B681B685B689BB2C3F308039AB2BB6A3A
:103EE0001A807B689B6A9A1C7B689A6226E07B68D2
:103EF0009B6AFB620023BB627B689B68B3F5805FB3
:103F000007D07B689B68002B0AD17B681B69002B5C
:103F100006D17B681B685B68DAB2FB6A1A7008E03E
:103F20007B681B685B68DBB203F07F03DAB2FB6A75
:103F30001A707B689B6A5A1C7B689A627B68DB8D6F
:103F40009BB2013B9BB27A681946D185002B5DD1AB
:103F50007B681B68DA687B681B6822F02002DA60E5
:103F60007B681B68DA687B681B6822F48072DA6001
:103F70007B681B685A697B681B6822F001025A61E2
:103F80007B68202283F842207B6800225A637B688A
:103F90001B6B012B35D17B6800221A637B681B6881
:103FA0000C337B617B6953E8003F3B613B6923F045
:103FB00010037B627B681B680C337A6A3A62FB6190
:103FC000F9693A6A41E80023BB61BB69002BE5D17E
:103FD0007B681B681B6803F01003102B0AD10023B9
:103FE000FB607B681B681B68FB607B681B685B6809
:103FF000FB60FB687B689B8D19467868FFF72EFE97
:1040000002E07868FCF7F0FD002302E0002300E006
:10401000022318463037BD4680BD000080B584B00D
:1040200000AF78607B681B681B6923F440517B6894
:10403000DA687B681B680A431A617B689A687B6848
:104040001B691A437B685B691343BB607B681B6811
:10405000DB6823F4B05323F00C037A681268B96864
:104060000B43D3607B681B685B6923F440717B68FA
:104070009A697B681B680A435A617B681B682C4AF3
:10408000934203D1FFF79EFAF86002E0FFF786FA49
:10409000F860FA6813469B0013449A001A447B6840
:1040A0005B689B00B2FBF3F3224AA2FB03235B098C
:1040B0001901FA6813469B0013449A001A447B685E
:1040C0005B689B00B2FBF3F21A4BA3FB02035B0994
:1040D000642000FB03F3D31A1B013233154AA2FB01
:1040E00003235B0903F0F0031944FA6813469B00AD
:1040F00013449A001A447B685B689B00B2FBF3F29E
:104100000C4BA3FB02035B09642000FB03F3D31AEF
:104110001B013233074AA2FB03235B0903F00F02A2
:104120007B681B680A449A6000BF1037BD4680BD9B
:10413000003801401F85EB5103460244934200D1F1
:10414000704703F8011BF9E770B500260C4D0D4CC4
:10415000641BA410A64209D100F01AF800260A4DEB
:104160000A4C641BA410A64205D170BD55F8043B4F
:1041700098470136EEE755F8043B98470136F2E7D9
:10418000D4410008D4410008D4410008D8410008B7
:10419000F8B500BFF8BC08BC9E467047F8B500BF34
:0841A000F8BC08BC9E46704704
:1041A80000000000000000000102030406070809DF
:1041B80000000000010203040203040506070809C1
:0C41C8000A0B0C0D0E0F1010010200007D
:0441D40035010008A9
:0441D80011010008C9
:0C41DC000024F4001000000001000000AE
:040000050800152DAD
:00000001FF
